:020000040800F2
:1000000090060020D5010008DD010008DF0100088E
:10001000E1010008E3010008E5010008000000001C
:10002000000000000000000000000000E7010008E0
:10003000E901000800000000EB010008ED010008E4
:10004000EF010008EF010008EF010008EF010008D0
:10005000EF010008EF010008EF010008EF010008C0
:10006000EF010008EF010008EF010008EF010008B0
:10007000EF010008EF010008EF010008EF010008A0
:10008000EF010008EF010008EF0100080000000088
:100090000000000000000000000000007F110008C8
:1000A000EF010008EF010008EF010008EF01000870
:1000B000EF010008EF010008EF010008EF01000860
:1000C000EF010008EF010008EF010008EF01000850
:1000D000EF010008EF010008EF010008EF01000840
:1000E000EF010008EF010008EF0100080000000028
:1000F0000000000000000000000000000000000000
:1001000000000000000000000000000000000000EF
:100110000000000000000000EF010008EF010008EF
:1001200000F002F800F047F80AA090E8000C8244C2
:100130008344AAF10107DA4501D100F03CF8AFF29F
:10014000090EBAE80F0013F0010F18BFFB1A43F0B5
:10015000010318478C1F0000AC1F0000103A24BF99
:1001600078C878C1FAD8520724BF30C830C144BF1C
:1001700004680C607047000000230024002500265E
:10018000103A28BF78C1FBD8520728BF30C148BFFA
:100190000B607047662901F05787002070471FB534
:1001A00000F0B0FA04000020002101F00BFDE06037
:1001B0001FBD10B510BD00F0A5FB1146FFF7EFFF06
:1001C00001F000FC00F0C3FB03B4FFF7F2FF03BC37
:1001D00000F006FC0948804709480047FEE7FEE7B3
:1001E000FEE7FEE7FEE7FEE7FEE7FEE7FEE7FEE7E7
:1001F00004480549054A064B70470000851600086B
:1002000021010008900000209006002090020020AC
:10021000900200200FB41CB5074B06AA7B44694628
:100220000090059800F055FA0020694600F064FA45
:100230001CBC5DF814FB0000D90400002DE9F0415E
:100240000E460446002020622046E168884730B30D
:10025000252805D0D4E901219047206A401CF2E707
:10026000E168204600278847050018D0A5F1410025
:10027000192802D820354FF4006732462946204617
:100280002760FFF787FF40B1012804D0F61D26F054
:1002900007060836D8E7361DD6E72846DAE7206A8B
:1002A000BDE8F08170477047704770472DE9FF4FF8
:1002B0000C461E464FF0FF378BB0D2E90001DDF847
:1002C00060800A908A46C1F30A5505B93D4600216F
:1002D00008464FF00000BAF1000F00F4400005DAC4
:1002E00000EB80004FF4400101EA50004FEA9059C2
:1002F000B9F1010F00DDB9460A9850EA4A000ED064
:1003000044F61050A5F2FF3545432F14B8F1000F05
:100310001ED07542291E1EDDC9F100021CE0B8F195
:10032000010F4FF0000001D0302103E0F24305E05F
:100330002154401CB042FBDB3046002200212154F6
:100340000B99C1F80880C1E900200FB0BDE8F08F1B
:10035000BD1B6D1CDEE74A4600DA694206A800F0C4
:100360005BFA06AB93E8070003AB83E8070050464F
:100370000A9900F03CFB8DE80700A0F500501F38FB
:1003800000900398002D0ADD42F21F014A460844FE
:10039000002303A90390684600F0A5FD09E0A0F53D
:1003A00000504A461F38002303A90390684600F016
:1003B000AFFD8DE807000004000C03D04FF0FF30C4
:1003C000410800E01046B8F1000F03D0002200926F
:1003D00015461EE0751E05D400F098F930326255BE
:1003E0006D1EF9D5B3460122084302D000227F1CBE
:1003F00004E02078302801D100227F1E002A0997CE
:1004000084D01DE0112D07DA00F080F930326255FA
:100410006D1C50EA0102F5D1084302D00098C8B122
:100420000EE00021681E05E0235C625C63542254E8
:10043000401E491C8142F7DBAB46A81B401E0990B9
:10044000002004F80B000B98099AC0F80880C0E956
:10045000002B7AE711264FF0000857E72DE9F04FFF
:1004600088460446D21D22F0070191B0D1E900016F
:10047000CDE90A0101F00AFA02460B98C00F01D03B
:100480002D2007E02068810701D52B2002E02021E4
:1004900001EAC000032A099001D0072A05DB0346C0
:1004A0004146204600F078F90BE12078800601D51E
:1004B000E06900E00620B8F1650F814606D0B8F18A
:1004C000660F18D0B8F1670F70D131E00020B9F194
:1004D000110F009001DB112301E009F101030AAAC9
:1004E00001A90CA8FFF7E2FEDDE90C70002609F176
:1004F0000105834647E001204B4600904FF000473E
:100500000AAA01A90CA8FFF7D1FEDDE90DB00C99EC
:100510005D46002610B909F101000D18B9EB050080
:1005200003D4C0F1FF3609F10105A5EB09002BE06A
:10053000B9F1010F01DA4FF001090020B9F1110FF3
:100540000090484601DD112300E003460AAA01A9F4
:100550000CA8FFF7ABFEDDE90C704D460026834684
:10056000207800070AD4AB4500DA5D4601A8012DCA
:1005700004DD411911F8011C302907D04F4502DA7A
:1005800017F1040F04DA012082460FE06D1EEEE73A
:10059000002F02DCED1B3E4403E0781CA84200DD86
:1005A0007D1CB81B00F1010A4FF0004720780007BE
:1005B00003D4AA4501DB4FF0FF3A0021B7F1004F09
:1005C0000DF143088DF8431024D002202B23002F77
:1005D00001DA7F422D230A21021EA0F1010000DC76
:1005E0005FB197FBF1FC97FBF1F201FB1C7C174616
:1005F0000CF1300C08F801CDEEE7A8F10100037012
:100600002188090501D5452100E06521A0F10108F7
:1006100000F8011C09980FA9A1EB0807FF1D00B104
:100620000120411901EBEA70A1693844081A401E03
:10063000A0612078C00602D42046AFF3008009985C
:1006400028B1D4E901219047206A401C206220781B
:10065000C00622D52046AFF300801EE0002E04DB4A
:10066000B34502DD01A8805D00E03020D4E901211E
:100670009047206A401C2062761CAAF101005FEAC4
:10068000000A0AD100F03EF8C0680168405CD4E975
:1006900001219047206A401C2062281EA5F1010517
:1006A000DCDC07E0D4E9012118F8010B9047206A4F
:1006B000401C2062381EA7F10107F3DC2046AFF38F
:1006C0000080032011B041E601694A1C02610878EC
:1006D000704700B58FB0CDE9013100210591054982
:1006E0007944CDE9031011466846FFF7A7FD0FB026
:1006F00000BD0000E5FFFFFF0A6802F8010B0A6079
:1007000070470000004870475000002030B5B0F13D
:100710000A024FEA900E71F100034EEA817EB0EBBF
:100720000E0061EB91014FEA101E4EEA017E10EBC4
:100730000E0041EB11114FEA102E4EEA016E10EB44
:100740000E0041EB11214FEA104E4EEA014E10EB24
:100750000E0041EB1141401841F100014FEAD00079
:1007600040EA41704FEAD10110EB80054FEA810465
:1007700044EA907444EB01046D1944EB0404521BE9
:10078000A3414FF0000348BF0A3200D530BD401CE2
:1007900041F1000130BD00002DE9F0411F46044643
:1007A00003260168072A01F4006004DB08B116A5DE
:1007B00005E016A503E008B115A500E015A521F098
:1007C00010002060A069C01EA0610FB1401EA06192
:1007D0002046AFF300804FB1D4E90121384690475D
:1007E000206A401C2062C01C206206E0206AFAE7F2
:1007F000D4E9012115F8010B9047761EF8D2204666
:10080000AFF30080BDE8F0814E414E006E616E0096
:10081000494E4600696E66002DE9F047814616464E
:100820008AB0354878440DC88DE80D0032487844C8
:10083000801C03AC0DC884E80D0041F69B300844D1
:10084000372190FBF1F290FBF1F5A5F1800501FB5A
:1008500012041B3C02D56442012000E00020DFF8B6
:1008600098A080460027FA44AAF1BE0A0EE0E007ED
:100870000AD03246684607EB470101230AEB8101A3
:1008800000F046FB8DE8070064107F1C002CEED1C1
:10089000194F7F44AE3F19E0E80715D007EB04106D
:1008A0000DF1180A90E80E008AE80E00C068F042C8
:1008B00001D1981908903246012306A903A800F037
:1008C00027FB03AB83E807006D10641C002DE3D108
:1008D0004FF0010332466946B8F1000F03A802D079
:1008E00000F001FB01E000F013FBC9E90001C9F8C9
:1008F00008200AB0BDE8F087A01800000048704743
:10090000300000207546FFF7F9FFAE460500694646
:10091000534620F00700854618B020B5FFF768FC65
:10092000BDE820404FF000064FF000074FF00008F0
:100930004FF0000B21F00701AC46ACE8C009ACE871
:10094000C009ACE8C009ACE8C0098D46704710B5D5
:100950000446AFF300802046BDE81040FFF734BCEA
:100960004FF0013C50F8042B51F8043B9A4221D13E
:10097000A2EB0C03934313EACC1317D150F8042BCA
:1009800051F8043B9A4215D1A2EB0C03934313EAAE
:10099000CC130BD150F8042B51F8043B9A4209D1E7
:1009A000A2EB0C03934313EACC13DBD04FF000000F
:1009B000704700BFD01A01BAB1FA81F101F01801F5
:1009C00022FA01F0CB40C1F12001DBB2C0B2C01A63
:1009D0002CFA01F3D11A914311EAC311E6D1704701
:1009E00001491820ABBEFEE72600020070475FEA0F
:1009F000400C08BF91F0000F4FEA8C234FEAC12250
:100A000043EA51514FEA1C5018BF00F5F0404FEA3D
:100A1000300018BF41F000415FEA6C5C00F02980B3
:100A2000BCF1FF3F08BF40F080407047130C06BF89
:100A300012044FF0100C4FF0000C130E04BF120202
:100A40000CF1080C130F04BF12010CF1040C930FEE
:100A500004BF92000CF1020CD30F04BF52000CF142
:100A6000010C11464FF00002A0F11F00A0EB0C009A
:100A7000704711F0004F08BF704731F000413FF45C
:100A8000D5AF0B0C06BF09044FF0100C4FF0000C53
:100A90000B0E04BF09020CF1080C0B0F04BF090177
:100AA0000CF1040C8B0F04BF89000CF1020CCB0F6E
:100AB00004BF49000CF1010CCCF12003A0EB0C00A9
:100AC00022FA03F302FA0CF241EA030100F10100F9
:100AD000704720F07F4C80EA030023F07F47ACEBA7
:100AE000070303F57C5300F0004003F1FF032DE9F9
:100AF00080494FEA154B09B44FEA144325EA0B4EDF
:100B000024EA03480FF2042606EB132749083E782F
:100B10005FEA320203FB0667C7F5000707FB06F62C
:100B20004FEA54374FEAD64606F1020607FB066C39
:100B3000CCF1005C4FEA1C472CEA074C07FB06F49B
:100B40000CFB06F504EB15464FEA961634BF002061
:100B50004FF000404FEAD13706FB07FC4FEA1C4C30
:100B60000CFB0BF7D21B03FB0CF761EB07010CFB33
:100B70000EF7B0EB074072EB17420CFB08F734BFDF
:100B8000A2EB0742B2EB074261EB17414FEA0C447C
:100B90004FEA910706FB07FC4FEA1C4C0CFB0BF7D6
:100BA000B0EBC74072EB573203FB0CF734BFA2EB3C
:100BB000C742B2EBC74261EB57310CFB0EF7B0EB0B
:100BC000C70072EB57720CFB08F734BFA2EBC702E9
:100BD000B2EBC70261EB5771039F4FEA816141EAB3
:100BE000921104EBCC044FEAD1374FEA826206FB44
:100BF00007FC42EA90124FEA80604FEA1C4C0CFB63
:100C00000BF7D21B03FB0CF761EB07010CFB0EF794
:100C1000B0EB074072EB17420CFB08F734BFA2EBB6
:100C20000742B2EB074261EB17414FEA8C554FEA9E
:100C3000910704EB9C2406FB07FC4FEA1C4C0CFBC1
:100C40000BF7B0EBC74072EB573203FB0CF734BF26
:100C5000A2EBC742B2EBC74261EB57310CFB0EF778
:100C6000B0EBC70072EB57720CFB08F734BFA2EB76
:100C7000C702B2EBC70261EB577115EB4C254FEA87
:100C8000816141EA92114FEA82624FEAD13742EA2A
:100C9000901206FB07FC44F100044FEA80604FEA23
:100CA0001C4C0CFB0BF7D21B03FB0CF761EB070191
:100CB0000CFB0EF7B0EB074072EB17420CFB08F78A
:100CC00034BFA2EB0742B2EB074261EB174115EBD1
:100CD0001C154FEA813141EA92414FEA823242EAE1
:100CE00090424FEA80304FEA0C7644F1000448EA23
:100CF00003434EEA0B484FF0000EB2EB080C71EBC9
:100D0000030724BF624639464EEB0E0E4FF0000B30
:100D10000018524149414BEB0B0BB2EB080C71EB45
:100D200003077BF1000B24BF624639464EEB0E0EE3
:100D30004FF0000B0018524149414BEB0B0BB2EB4B
:100D4000080C71EB03077BF1000B24BF62463946A8
:100D50004EEB0E0E51EA020718BF46F0010616EBE5
:100D60000E7655F1000254F1000103D5BDE889016A
:100D7000BDE80088BDE88901BDE80048B6195241C8
:100D800041EB0101A3F10103704780807F7E7D7CF0
:100D90007B7A7978777676757473727171706F6E0D
:100DA0006E6D6C6C6B6A6A696868676666656464B8
:100DB000636362616160605F5F5E5E5D5D5C5C5B42
:100DC0005B5A5A59595858575756565555555454B1
:100DD000535352525251515050504F4F4F4E4E4D0F
:100DE0004D4D4C4C4C4B4B4B4A4A4A49494948485B
:100DF000484747474746464645454544444444439B
:100E000043434342424242414141002B9C4630D43D
:100E100077002BD01CB54FEA370703B44FF0100012
:100E20004FF01001BAF1000F06D0BCF1000FDCBF8B
:100E300040F0080040F008014FF000000FBCBDE892
:100E400010400BF1010BBBF1010F08BF5FEA170760
:100E500022BF12F1010211F101014FF0004143F1F3
:100E6000000300F0004043EA00007047F9D3570840
:100E7000D0E746EA064613F1400F4FEA16461FDD5B
:100E800013F1200FDFBF16430A46002120335B42D7
:100E9000BED0C3F1200746EA064602FA07F74FEA3A
:100EA000164646EA0706C3F1200722FA03F201FAC2
:100EB00007F721FA03F14FF0000342EA0702A7E720
:100EC00046EA020646EA06464FEA164646EA0106A2
:100ED000BCBF46EA0646360C4FF000034FF0000256
:100EE0004FF0000194E72DE9804C9A46934670B488
:100EF00091E8380007C831EA400C48BF34EA430C97
:100F000003D5FFF7E6FDFFF780FFF0BCBDE8008CDE
:100F10002DE9804C9A46934670B491E8380007C892
:100F200010F0804F08BF13F0804F03D100F005F898
:100F3000FFF76BFFF0BCBDE8008C20F07F4780EA34
:100F4000030023F07F4C07EB0C03A3F57C5300F068
:100F50000040A3F1FE0392F0000F00F0B38095F083
:100F6000000F00F077802DE901494FEA11404FEA68
:100F7000144621EA004800FB06FC24EA064708FB69
:100F800006F607FB08F800FB07F718EB06484CEBE2
:100F9000164C4FEA124B18EB07484FEA15464CEB3C
:100FA000174022EA0B4E0BFB06FC25EA06470EFB18
:100FB00006F607FB0EFE0BFB07F71EEB064E4CEB8F
:100FC000164C4FF000061EEB074E4CEB174B18EB80
:100FD0000B0840F1000018EB0E0B58EB000840F135
:100FE00000008F1A4FF000013CBFC943661B14BFBD
:100FF000B5EB040C00213CBFC943F61B4FEA174474
:101000004EEA8E0E27EA04454FEA1C4704FB0762AE
:101010002CEA074C05FB07F70CFB05F604FB0CFC60
:1010200016EB074642EB174216EB0C4642EB1C420E
:101030001BEB060658EB0202414146EA9E0601D52B
:10104000BDE80189B619524141EB0101A3F1010349
:10105000BDE801894FEA14454FEA114724EA0546E5
:1010600021EA074C05FB07F406FB07F70CFB06F12A
:1010700005FB0CFC11EB074144EB17444FEA124708
:1010800011EB0C4144EB1C4422EA074C05FB07F230
:1010900006FB07F70CFB06F605FB0CFC16EB0746F8
:1010A00042EB174216EB0C4642EB1C456A1854F112
:1010B000000148BF7047B619524141EB0101A3F14D
:1010C0000103704795F0000F37D04FEA11424FEA05
:1010D000144721EA024624EA074C02FB07F106FB0B
:1010E00007F70CFB06F402FB0CFC14EB074441EB86
:1010F00017414FEA154714EB0C4441EB1C4125EA1C
:10110000074C02FB07F506FB07F70CFB06F602FB94
:101110000CFC16EB074645EB174516EB0C4645EB6A
:101120001C42121951F1000148BF7047B6195241D3
:1011300041EB0101A3F1010370474FEA14454FEA67
:10114000114724EA054621EA074C05FB07F106FB97
:1011500007F70CFB06F24FF0000605FB0CFC12EB48
:10116000074241EB174112EB0C4251EB1C4148BFC7
:101170007047921841EB0101A3F10103704710B5CC
:10118000802000F00FF810B1002000F0CDFC80208E
:1011900000F002F810BD000001490860704700002F
:1011A00014040140014600200022074B1B6803EA9B
:1011B0000102054B14331B680B4013B10AB1012027
:1011C00000E0002070470000000401400021234996
:1011D0008279002A3AD00A46126803689A430B467D
:1011E0001A600A1D126803689A430B1D1A6002797F
:1011F00011440A6803681A430A60184A08321268E0
:1012000003689A43154B08331A601A1D1268036865
:101210009A43124B0C331A604279102A0ED11A1FCE
:10122000126803681A430D4B08331A601A1D1268BE
:1012300003681A43094B0C331A600DE007494279E1
:1012400011440A6803681A430A6005E002791144F0
:101250000A6803689A430A6070470000000401406E
:1012600030B500228B071C0F0F2303FA04F20B4B3F
:101270008C1053F824309343084C8D1044F82530DB
:1012800023468C1053F824308C07240F00FA04F402
:101290002343024C8D1044F8253030BD0800014036
:1012A0002DE9F041024600250026002000230024FD
:1012B000002791F803C00CF00F0591F803C00CF063
:1012C000100CBCF1000F03D091F802C04CEA0505E8
:1012D00091F800C0BCF1000F31D0146800202BE061
:1012E0004FF0010C0CFA00F3B1F800C00CEA030651
:1012F0009E4220D183004FF00F0C0CFA03F7BC4341
:1013000005FA03FC4CEA040491F803C0BCF1280F71
:1013100006D14FF0010C0CFA00FCC2F814C00AE030
:1013200091F803C0BCF1480F05D14FF0010C0CFA45
:1013300000FCC2F810C0401C0828D1D31460B1F8DA
:1013400000C0BCF1FF0F34DD546800202EE000F136
:10135000080C4FF0010808FA0CF3B1F800C00CEAD1
:1013600003069E4221D183004FF00F0C0CFA03F7C5
:10137000BC4305FA03FC4CEA040491F803C0BCF139
:10138000280F05D100F1080C08FA0CF8C2F81480F7
:1013900091F803C0BCF1480F07D100F1080C4FF0E1
:1013A000010808FA0CF8C2F81080401C0828CED3B7
:1013B0005460BDE8F0810246002093680B400BB1F9
:1013C000012000E0002070474161704701617047D3
:1013D0002DE9F0470024A14602211E48FFF7F4FF43
:1013E0000A2000F067FA02211A48FFF7EFFF0A20EF
:1013F00000F060FA02211748FFF7E6FF0A2000F02C
:1014000059FA00BF01211348FFF7D5FF0028F9D092
:1014100003E0641C012000F04DFA01210D48FFF7A4
:10142000CAFF0028F5D1204600F04AFD824600F0B0
:101430000FFD0746084A094B00F00CFC054600F07A
:10144000D7FB81464FF47A7000F034FA4846BDE885
:10145000F0870000000801409CC420B07268A13FE2
:1014600070B5002100230F22C47804B3154C246802
:1014700004F4E064C4F5E064210AC1F10403CA4045
:10148000447804FA03F184781440214309010E4C96
:101490000678A155047804F01F050124AC400578B6
:1014A0006D11AD0005F1E025C5F8004109E00478B3
:1014B00004F01F050124AC40044D0678761145F870
:1014C000264070BD0CED00E000E400E080E100E0AB
:1014D00029B1064A92690243044B9A6104E0034A27
:1014E00092698243014B9A617047000000100240EC
:1014F00070B5002100230024002200252C4E7668C0
:1015000006F00C0121B1042905D0082921D105E0FC
:10151000284E066020E0274E06601DE0244E7668C7
:1015200006F47013224E766806F48034022606EB29
:1015300093431CB9204E5E43066009E01C4EF66AD8
:1015400006F00F06751C1B4EB6FBF5F65E430660F3
:1015500002E0184E066000BF00BF154E766806F028
:10156000F0010909154E725C0668D6404660104EBF
:10157000766806F4E061090A104E725C4668D6404F
:1015800086600B4E766806F46051C90A0B4E725C99
:101590004668D640C660064E766806F44041890B20
:1015A000074E725CC668B6FBF2F6066170BD0000BD
:1015B0000010024000127A0000093D0006000020E1
:1015C0001600002010B500F001F810BD0CB5002089
:1015D000019000902A48006840F480302849086053
:1015E00000BF2748006800F4003000900198401CBC
:1015F0000190009818B90198B0F5A06FF1D120487A
:10160000006800F4003010B10120009001E00020DB
:1016100000900098012831D1194840681849486065
:101620000846406848600846406848600846406888
:1016300020F47C1048600846406840F498104860E8
:101640000846006840F08070086000BF0C480068E1
:1016500000F000700028F9D00948406820F003002D
:10166000074948600846406840F00200486000BFF3
:101670000348406800F00C000828F9D10CBD0000B8
:101680000010024010B51448006840F001001249F3
:10169000086008464068114908400F4948600846FC
:1016A00000680F4908400C4908600846006820F4AB
:1016B000802008600846406820F4FE0048604FF42F
:1016C0001F0088600020C862FFF77CFF4FF00060B9
:1016D0000449086010BD0000001002400000FFF83F
:1016E000FFFFF6FE08ED00E070B5002400220023A5
:1016F000058C4FF6FE7635400584028C8388048B7A
:101700004FF68F752C40B51E2C400D882C43751E4E
:101710002A400D892A434D882A43144DA8420BD0F4
:10172000134DA84208D0134DA84205D0124DA8422F
:1017300002D0124DA84213D14FF6F7752A404D89B9
:101740002A434FF6FB752A408D882A434FF6FF65E2
:101750002B404FF6FF552B408D892B43CD892B43D2
:1017600083800483CD888586028470BD002C01406F
:101770000034014000400140004401400048014065
:101780000A460021018B4FF6F7731940114301837C
:10179000704721B1828942F40052828104E082893B
:1017A0004DF6FF731A408281704700002DE9F04723
:1017B00086B005460E460024A24600BFA14600277B
:1017C000B08900B100BF2F462C8A4CF6FF70044050
:1017D000F08804432C82AC894EF6F3100440B088A4
:1017E00031890843718908430443AC81AC8A4FF6C0
:1017F000FF400440B0890443AC8201A8FFF778FEA3
:101800001F48874202D1DDF810A001E0DDF80CA0EE
:10181000A88900F4004040B10AEBCA0000EB0A10AE
:1018200031684900B0FBF1F807E00AEBCA0000EBB1
:101830000A1031688900B0FBF1F86420B8FBF0F0C1
:1018400004012009642101FB1089A88900F40040EB
:1018500040B1322000EBC900B0FBF1F000F007000E
:10186000044308E0322000EB09106421B0FBF1F0E2
:1018700000F00F0004432C8106B0BDE8F0870000A3
:1018800000380140C1F3080282807047490050EAE5
:10189000C12018BF04204A0D18BF40F0010040F2DB
:1018A000FF72B2EB515F08BF40F00200012808BF91
:1018B0000520704700EB4002D10000BF0A1EA1F1D5
:1018C0000101FBD170470EB501210846FFF700FE6C
:1018D00007210020FFF7C4FC8020019001208DF833
:1018E0000A0000208DF8080008208DF8090001A8E2
:1018F000FFF76CFC17208DF8000001208DF8030025
:101900008DF801008DF802006846FFF7A9FD0EBDB5
:1019100008B501210420FFF7DBFD01210820FFF7B6
:10192000D7FD10208DF803000220ADF80000032041
:101930008DF8020069462148FFF7B2FC28208DF897
:1019400003000120ADF8000003208DF80200694675
:101950001A48FFF7A5FC18208DF803004FF400701B
:10196000ADF8000003208DF8020069461348FFF728
:1019700097FC10208DF803000320ADF800008DF8CF
:10198000020069460E48FFF78BFC18208DF8030013
:101990004020ADF8000003208DF80200694607489A
:1019A000FFF77EFC28208DF803008020ADF80000B2
:1019B00069460248FFF774FC08BD000000080140BA
:1019C000000C0140FFF7A4FF00F0DCF8FFF77BFFFD
:1019D00090E0FFF7FDFC4849086048494648006828
:1019E00000F001FB02D84548434908604FF08041B0
:1019F0004148006800F078FA03D84FF080403E4933
:101A000008603D48006800F023FA044622460B4671
:101A10003BA14048FEF7FEFB3E4800F09DF84FF426
:101A20007A70FFF747FF35493348006800F05CFAE9
:101A300013D801213848FFF7C7FC4FF47A70FFF73D
:101A400039FF02213448FFF7C1FC4FF47A70FFF7E9
:101A500031FF40F65F1000F067F830492648006813
:101A600000F042FA13D801212B48FFF7ADFC4FF4E8
:101A70007A70FFF71FFF02212748FFF7A7FC4FF4FA
:101A80007A70FFF717FF40F2775000F04DF82449C5
:101A90001948006800F028FA13D801211E48FFF702
:101AA00093FC4FF47A70FFF705FF02211A48FFF705
:101AB0008DFC4FF47A70FFF7FDFE40F28F1000F0BE
:101AC00033F818490C48006800F00EFA12D80221C9
:101AD0001148FFF779FC4FF47A70FFF7EBFE012114
:101AE0000D48FFF773FC4FF47A70FFF7E3FE6320B5
:101AF00000F01AF86DE70000000000200000C84365
:101B000064697374616E6365203A20256620636D95
:101B1000200A00001C000020000C01400000484387
:101B20000000C842000048421FB504466020ADF8DE
:101B300000000020ADF808000120ADF80200ADF86B
:101B4000064069460348FFF7CFFD08210148FFF72B
:101B500017FE1FBD0004004010B504460BE000BF97
:101B60000748008800F040000028F9D02178044898
:101B7000FFF788FE641C20780028F0D110BD00001B
:101B8000003801401FB501218803FFF7A1FC4FF485
:101B9000165000900020ADF80C000820ADF80A00A7
:101BA0000020ADF80800ADF80600ADF80400694665
:101BB0000348FFF7FBFD01210148FFF7EAFD1FBDC8
:101BC0000038014010B500290AD00878002807D055
:101BD00005487844FEF7C4FE002801D0002010BD5F
:101BE0000248784410BD00002E05000026050000C4
:101BF00021F00042A2F16052B2F5801F01F00043D3
:101C000028BFD2F17F6C0BD95FEA001C43EAC20205
:101C100042EB507018BF704728BF20F0010070479A
:101C2000B2F5801FBCBF184670474FEA410C1CF547
:101C3000001F02D2084600F0D1B970B500F0B4F828
:101C400000000089FFF7F6BF4FF00040A0F58000CC
:101C500070470000DFF848C170B51CEA111E1EBFB6
:101C60001CEA13159EEA0C0F95EA0C0F00F06F802A
:101C700081EA030423EA4C134EEAD47E21EA4C1194
:101C800041F4801143F48013AE44A1FB024CA0FB4D
:101C90000365AEF17F7E361955EB0C05A1FB034CB5
:101CA0004CF10003A0FB021C16EB0C06654153F13E
:101CB0000003094218BF46F0010613F4007F0BD160
:101CC0004FEA03314FEA0530340341EA155140EA47
:101CD00016506FF003020AE04FEAC3214FEAC52015
:101CE000F40241EA555140EA56506FF0020202EB0D
:101CF0002E4201EB025585EACE710AD05FEA440C10
:101D000018BF24F0004450F1000041F1000120EA26
:101D1000D47040F2FE7C624500D270BDA84214BF70
:101D20004FF080444FF04044002E08BF0024BEF125
:101D3000806FA8BFA1F1C041BDE8704080F28280F1
:101D40004FF0000001F1C04101F0004170479EEAF0
:101D50000C0F0CEA131518BF95EA0C0F06D04FF0C4
:101D6000000081EA030E0EF0004170BD00F01CF887
:101D70008900013E00F007B800F009B84FEA430CB3
:101D80005FEA5C5C08D081EA030100F05BB84FEACF
:101D9000410C5FEA5C5CF6D14FF0000001497047EE
:101DA0000000FF070000F87F0EF1020E2EF0030E78
:101DB0005EF8046B364205D4012A43EB030515F5A2
:101DC000001F12D8012841EB010C1CF5001F0CD894
:101DD0000ED14FEAD17C15F5001F0CEB4C0C0CF129
:101DE000020C08BF4CEBD37C04E04FF0080C01E080
:101DF0004FEAD37C0CEB4C0526FA05F606F00706F5
:101E0000B6F1040C06D20EEB860CBDE870404CF027
:101E1000010C6047DFE80CF0090B02024FF00041B3
:101E20004FF00000A1F5002170BD194610460128B1
:101E300051EB010418BFD4F5001484BF002001F059
:101E4000004170BD0808A0F500114FEA310170474C
:101E500043004FEAD30C4FEA3C0C43401FBF4007FE
:101E60000CF1605113F0FE4F70471CF0006F03D16E
:101E700000200CF0004170470CF0004343EA507022
:101E800010B540EACC0000F063F800BF00000092FB
:101E90004FEA0001FFF7D6BF4FF000414FF00000BE
:101EA000A1F500217047401058BFC0F140404910D3
:101EB00058BFC1F140418142EFF3008070470000FC
:101EC000B0FA80F310FA03F2C3F19D030AD0D905EA
:101ED00001EB1220530638BF704700F1010008BF24
:101EE00020F001007047000050EA010C00F113805F
:101EF0001CF5000F58BFBCF5000F01D48842704795
:101F000007D710F5000F58BF11F5000F15D4884200
:101F10007047894270471CF5000F04D5BCF5000FCF
:101F2000F7D5814270474FF0807C1CEB400F38BFE3
:101F30001CEB410F01D28142704710B500F008F848
:101F4000922449004FF000504FF08051FFF7ABBF93
:101F50000EF1020E2EF0030E5EF8044B244204D460
:101F60004FEA4102B2F17F4F11D84FEA4003B3F17B
:101F70007F4F0CD80ED14FEAD07CB2F17F4F0CEBE3
:101F80004C0C0CF1020C08BF4CEBD17C04E04FF080
:101F9000080C01E04FEAD17C0CEB4C0324FA03F46B
:101FA00004F00704B4F1040C06D20EEB840CBDE877
:101FB00010404CF0010C6047DFE80CF0070802020B
:101FC0004FF00040A0F5800010BD0846420018BF49
:101FD000D2F1807288BF00F0004010BDFF2141EABD
:101FE000D050C005704751EA000C00F113801CF579
:101FF000000F58BFBCF5000F01D48142704707D7CE
:1020000011F5000F58BF10F5000F15D4814270472D
:10201000894270471CF5000F04D5BCF5000FF7D5B9
:10202000884270474FF0807C1CEB410F38BF1CEB9F
:10203000400F01D28842704780EA010081EA000126
:1020400080EA0100FFF779BFFEF708BA02400000FE
:10205000000000A00000000005400000000000C8D3
:10206000000000000C4000000000409C0000000048
:10207000194000000020BCBE0000000034400000F9
:10208000BFC91B8E00000004B5400000504BCFD0EC
:102090006607E2CF010000006C4100003E8251AAB9
:1020A000DFEEA73401000000D9420000DCB5A0E259
:1020B0003A301F97FFFFFFFFB4450000FD25A0C881
:1020C000E9A3C14FFFFFFFFFFF3F000000000080BA
:1020D00000000000FF3F0000000000800000000042
:1020E0001C210008000000201C0000005C0100080A
:1020F000382100081C000020740600007801000848
:102100001C00000043000000F8FFFFFF0C0000006F
:102110000E0000000F0000002E0000000000000074
:10212000000000000000010203040102030406078E
:08213000080902040608000082
:04000005080001D519
:00000001FF
